:020000040800F2
:1000000000200020E5030008410400084104000826
:1000100000000000000000000000000000000000E0
:100020000000000000000000000000004104000883
:100030000000000000000000410400084104000826
:10004000410400084104000841040008410400087C
:10005000410400084104000841040008410400086C
:10006000410400084104000841040008410400085C
:10007000410400084104000841040008410400084C
:10008000410400084104000841040008410400083C
:10009000410400084104000841040008410400082C
:1000A000410400084104000841040008410400081C
:1000B000CB00000841040008410400084104000886
:1000C00080B500AF00F036F8FEE780B500AF0A4B10
:1000D000DB69202213400CD000F0CCF803001A009A
:1000E000064B1A70054B1B780133DBB2180000F089
:1000F000D3F8C046BD4680BD00440040000000204B
:1001000080B582B000AF0200FB1D1A70FB1D1B788A
:100110007F2B09D8FB1D1B781A001F231A40044BA4
:10012000012191400A001A60C046BD4602B080BD60
:1001300000E100E080B500AF454B5A69444B802197
:1001400089020A435A619023DB051A689023DB0574
:1001500010218A431A609023DB051A689023DB057F
:1001600020210A431A609023DB051A6A9023DB05DD
:10017000802149000A431A629023DB051A6A902302
:10018000DB0534490A401A629023DB051A6A902382
:10019000DB0531490A401A629023DB051A6A902375
:1001A000DB052E490A401A629023DB051A6890236A
:1001B000DB0540218A431A609023DB051A689023EF
:1001C000DB0580210A431A609023DB051A6A90231D
:1001D000DB05802149010A431A629023DB051A6A74
:1001E0009023DB051E490A401A629023DB051A6A38
:1001F0009023DB051B490A401A629023DB051A6A2B
:100200009023DB0518490A401A62114BDA69104B3A
:10021000802189020A43DA61E1235B021349144811
:100220001A0000F057F8124B0C221A60104B1A6893
:100230000F4B20210A431A601C20FFF761FF0C4B73
:100240001A680B4B01210A431A60C046BD4680BDA7
:1002500000100240FFFDFFFFFFFBFFFFFFF7FFFF66
:10026000FFDFFFFFFFBFFFFFFF7FFFFF00127A00EE
:100270000044004080B500AFC046064BDB69202239
:100280001340FAD0034B9B8C9BB2DBB21800BD46E7
:1002900080BDC0460044004080B582B000AF02007F
:1002A000FB1D1A70C0460A4BDB6980221340FAD04E
:1002B000074AFB1D1B789BB21385C046044BDB69C4
:1002C00040221340FAD0C046C046BD4602B080BDB1
:1002D0000044004080B584B000AFF860B9607A6037
:1002E0007A68BB681100180000F008F803001A00D3
:1002F000FB68DA60C046BD4604B080BD80B582B000
:1003000000AF786039603B685A087B68D318396859
:10031000180000F099F803009BB21800BD4602B027
:1003200080BD80B500AF294B5A69284B80218902D6
:100330000A435A619023DB051A689023DB051021DC
:100340008A431A609023DB051A689023DB0520217D
:100350000A431A609023DB051A6A9023DB0580218B
:1003600049000A431A629023DB051A6A9023DB05D1
:1003700017490A401A629023DB051A6A9023DB05AD
:1003800014490A401A629023DB051A6A9023DB05A0
:1003900011490A401A620D4BDA690C4B802189021F
:1003A0000A43DA61E1235B020C490D481A00FFF7AA
:1003B00091FF0B4B08221A60094B1A68084B012168
:1003C0000A431A60C046BD4680BDC04600100240C8
:1003D000FFFDFFFFFFFBFFFFFFF7FFFF00127A00AB
:1003E0000044004080B582B000AF104B7B60104BE2
:1003F0003B6007E07A68131D7B603B68191D39601C
:1004000012681A603A680B4B9A42F3D30A4B3B606E
:1004100004E03B681A1D3A6000221A603A68074BF4
:100420009A42F6D3FFF74CFEFEE7C046600500088F
:10043000000000200000002000000020010000203B
:1004400080B500AFFEE7C046002243088B4274D35C
:1004500003098B425FD3030A8B4244D3030B8B42C5
:1004600028D3030C8B420DD3FF22090212BA030CCE
:100470008B4202D31212090265D0030B8B4219D3AF
:1004800000E0090AC30B8B4201D3CB03C01A5241CF
:10049000830B8B4201D38B03C01A5241430B8B4217
:1004A00001D34B03C01A5241030B8B4201D30B0300
:1004B000C01A5241C30A8B4201D3CB02C01A524127
:1004C000830A8B4201D38B02C01A5241430A8B42EA
:1004D00001D34B02C01A5241030A8B4201D30B02D3
:1004E000C01A5241CDD2C3098B4201D3CB01C01AED
:1004F000524183098B4201D38B01C01A52414309F7
:100500008B4201D34B01C01A524103098B4201D3E4
:100510000B01C01A5241C3088B4201D3CB00C01A51
:10052000524183088B4201D38B00C01A52414308C9
:100530008B4201D34B00C01A5241411A00D20146EE
:10054000524110467047FFE701B5002000F006F861
:1005500002BDC0460029F7D076E770477047C04615
:04000005080003E507
:00000001FF
